{
  "contractName": "Inventory",
  "abi": [
    {
      "inputs": [
        {
          "internalType": "uint256",
          "name": "",
          "type": "uint256"
        }
      ],
      "name": "transactions",
      "outputs": [
        {
          "internalType": "address",
          "name": "from",
          "type": "address"
        },
        {
          "internalType": "address",
          "name": "to",
          "type": "address"
        },
        {
          "internalType": "uint256",
          "name": "amount",
          "type": "uint256"
        },
        {
          "internalType": "uint256",
          "name": "timestamp",
          "type": "uint256"
        }
      ],
      "stateMutability": "view",
      "type": "function"
    },
    {
      "inputs": [
        {
          "internalType": "address",
          "name": "_to",
          "type": "address"
        },
        {
          "internalType": "uint256",
          "name": "_amount",
          "type": "uint256"
        }
      ],
      "name": "createTransaction",
      "outputs": [],
      "stateMutability": "nonpayable",
      "type": "function"
    },
    {
      "inputs": [
        {
          "internalType": "uint256",
          "name": "_id",
          "type": "uint256"
        }
      ],
      "name": "getTransaction",
      "outputs": [
        {
          "internalType": "address",
          "name": "",
          "type": "address"
        },
        {
          "internalType": "address",
          "name": "",
          "type": "address"
        },
        {
          "internalType": "uint256",
          "name": "",
          "type": "uint256"
        },
        {
          "internalType": "uint256",
          "name": "",
          "type": "uint256"
        }
      ],
      "stateMutability": "view",
      "type": "function"
    },
    {
      "inputs": [],
      "name": "transactionCount",
      "outputs": [
        {
          "internalType": "uint256",
          "name": "",
          "type": "uint256"
        }
      ],
      "stateMutability": "view",
      "type": "function"
    }
  ],
  "bytecode": "0x608060405234801561000f575f80fd5b506105718061001d5f395ff3fe608060405234801561000f575f80fd5b506004361061004a575f3560e01c80631e7f8f0f1461004e57806333ea3dc81461006a5780639ace38c21461009d578063b77bf600146100d0575b5f80fd5b6100686004803603810190610063919061042b565b6100ee565b005b610084600480360381019061007f9190610469565b610206565b60405161009494939291906104b2565b60405180910390f35b6100b760048036038101906100b29190610469565b610317565b6040516100c794939291906104b2565b60405180910390f35b6100d861038f565b6040516100e591906104f5565b60405180910390f35b5f60405180608001604052803373ffffffffffffffffffffffffffffffffffffffff1681526020018473ffffffffffffffffffffffffffffffffffffffff16815260200183815260200142815250908060018154018082558091505060019003905f5260205f2090600402015f909190919091505f820151815f015f6101000a81548173ffffffffffffffffffffffffffffffffffffffff021916908373ffffffffffffffffffffffffffffffffffffffff1602179055506020820151816001015f6101000a81548173ffffffffffffffffffffffffffffffffffffffff021916908373ffffffffffffffffffffffffffffffffffffffff160217905550604082015181600201556060820151816003015550505050565b5f805f805f80868154811061021e5761021d61050e565b5b905f5260205f2090600402016040518060800160405290815f82015f9054906101000a900473ffffffffffffffffffffffffffffffffffffffff1673ffffffffffffffffffffffffffffffffffffffff1673ffffffffffffffffffffffffffffffffffffffff168152602001600182015f9054906101000a900473ffffffffffffffffffffffffffffffffffffffff1673ffffffffffffffffffffffffffffffffffffffff1673ffffffffffffffffffffffffffffffffffffffff168152602001600282015481526020016003820154815250509050805f01518160200151826040015183606001519450945094509450509193509193565b5f8181548110610325575f80fd5b905f5260205f2090600402015f91509050805f015f9054906101000a900473ffffffffffffffffffffffffffffffffffffffff1690806001015f9054906101000a900473ffffffffffffffffffffffffffffffffffffffff16908060020154908060030154905084565b5f8080549050905090565b5f80fd5b5f73ffffffffffffffffffffffffffffffffffffffff82169050919050565b5f6103c78261039e565b9050919050565b6103d7816103bd565b81146103e1575f80fd5b50565b5f813590506103f2816103ce565b92915050565b5f819050919050565b61040a816103f8565b8114610414575f80fd5b50565b5f8135905061042581610401565b92915050565b5f80604083850312156104415761044061039a565b5b5f61044e858286016103e4565b925050602061045f85828601610417565b9150509250929050565b5f6020828403121561047e5761047d61039a565b5b5f61048b84828501610417565b91505092915050565b61049d816103bd565b82525050565b6104ac816103f8565b82525050565b5f6080820190506104c55f830187610494565b6104d26020830186610494565b6104df60408301856104a3565b6104ec60608301846104a3565b95945050505050565b5f6020820190506105085f8301846104a3565b92915050565b7f4e487b71000000000000000000000000000000000000000000000000000000005f52603260045260245ffdfea26469706673582212201db4b278e4e924986e6d3314ac93fdc1217abf029d8a72ae6684a097e08e095c64736f6c63430008150033",
  "immutableReferences": {},
  "source": "// SPDX-License-Identifier: MIT\r\npragma solidity ^0.8.0;\r\n\r\ncontract Inventory {\r\n    struct Transaction {\r\n        address from;\r\n        address to;\r\n        uint256 amount;\r\n        uint256 timestamp;\r\n    }\r\n\r\n    Transaction[] public transactions;\r\n\r\n    function createTransaction(address _to, uint256 _amount) public {\r\n        transactions.push(Transaction(msg.sender, _to, _amount, block.timestamp));\r\n    }\r\n\r\n    function getTransaction(uint256 _id) public view returns (address, address, uint256, uint256) {\r\n        Transaction memory transaction = transactions[_id];\r\n        return (transaction.from, transaction.to, transaction.amount, transaction.timestamp);\r\n    }\r\n\r\n    function transactionCount() public view returns (uint256) {\r\n        return transactions.length;\r\n    }\r\n}\r\n",
  "sourcePath": "E:\\blockchain\\blockchain_project\\contracts\\Inventory.sol",
  "compiler": {
    "name": "solc",
    "version": "0.8.21+commit.d9974bed.Emscripten.clang"
  },
  "schemaVersion": "3.4.16",
  "updatedAt": "2024-06-05T07:51:21.536Z",
  "devdoc": {
    "kind": "dev",
    "methods": {},
    "version": 1
  },
  "userdoc": {
    "kind": "user",
    "methods": {},
    "version": 1
  }
}